:020000040800F2
:100000000028002021020008710200087102000887
:10001000710200087102000871020008000000006F
:100020000000000000000000000000007102000855
:10003000710200080000000071020008710200084F
:1000400071020008710200087102000871020008C4
:1000500071020008710200087102000871020008B4
:1000600071020008710200087102000871020008A4
:100070007102000871020008710200087102000894
:100080007102000871020008710200087102000884
:100090007102000871020008710200087102000874
:1000A0007102000871020008710200087102000864
:1000B0007102000871020008710200087102000854
:1000C0007102000871020008710200087102000844
:1000D0007102000871020008710200087102000834
:1000E000710200087102000800000000710200089F
:1000F0007102000871020008710200087102000814
:100100007102000871020008710200087102000803
:1001100071020008710200087102000871020008F3
:1001200071020008710200087102000871020008E3
:1001300010B5054C237833B9044B13B10448AFF321
:1001400000800123237010BD040000200000000087
:10015000BC02000808B5034B1BB103490348AFF3C9
:10016000008008BD0000000008000020BC0200085C
:1001700090B482B000AF274B1B68264A43F00403BB
:100180001360254B1B68244A23F470031360224B31
:100190001B68214A43F400131360204B1A6813882C
:1001A00043F4005313804FF000034FF00004C7E9FD
:1001B000003406E0D7E900124B1C42F10004C7E905
:1001C0000034D7E9003442F20F714FF00002A2422E
:1001D00008BF9942EED2114B1A6813886FF34D3362
:1001E00013804FF000034FF00004C7E9003406E02D
:1001F000D7E900124B1C42F10004C7E90034D7E9EB
:10020000003442F20F714FF00002A24208BF99423F
:10021000EED2C2E71810024004080140000000209E
:100220000D488546AFF300800C480D490D4A002368
:1002300002E0D458C4500433C4188C42F9D30A4A9B
:100240000A4C002301E013600432A242FBD300F009
:1002500011F8FFF78DFFFEE70028002000000020C6
:1002600004000020DC020008040000202000002020
:10027000FEE7000070B500250C4E0D4CA41BA41029
:10028000A54209D100F01AF800250A4E0A4CA41B19
:10029000A410A54205D170BD56F825309847013508
:1002A000EEE756F8253098470135F2E7D40200080A
:1002B000D4020008D4020008D8020008F8B500BF34
:1002C000F8BC08BC9E467047F8B500BFF8BC08BC37
:0402D0009E4670478F
:0402D40055010008C8
:0402D80031010008E8
:0402DC000C080140C9
:0400000508000221CC
:00000001FF
